:1000000008308A0000280000FF00030E8301A100D1
:100010000A08A0008A010408A2007708A300780853
:10002000A4007908A5007A08A600831383128C30F7
:100030008400001C1D280C1834288C308400801D7E
:1000400023288C193728220884002308F700240865
:10005000F8002508F9002608FA0020088A00210E79
:100060008300FF0E7F0E09008A110A12752C8A1177
:100070000A1293290A108A100A11820720342034A8
:1000800020342034203420342034203420342034D0
:1000900020342034203420342034203420342034C0
:1000A00020342034203420342034203420342034B0
:1000B000203420342034203420342034003494126E
:1000C0001413941394160800B20183160C148312AF
:1000D0000800AE018316C401C501353084008313C6
:1000E00044088407450883123A2080000038031929
:1000F0007E288316C50AC40A6D288312FF30FE00CD
:10010000FD00FC00FB006420080083162308840027
:100110008313241883174B088000840A8001A30AE4
:100120000319A40A8312080083164708F80146023F
:1001300003189D284608F700A928F7010830C800D1
:10014000C60DF70D470877020318F700F80DC80B26
:10015000A02883120800780883164408C60064307B
:10016000C7008312942077088316C40078083030C3
:10017000031DC128C51CCA28C519CA28451A203024
:10018000C428C51145124514F8077808CB0083121E
:10019000852083164408C6000A30C70083129420C5
:1001A00077088316C40078083030031DDD28C51990
:1001B000E328451CE328451A2030F8077808CB00CF
:1001C0008312852083163030C4074408CB00831285
:1001D00085200800832969208316A4013530A300F7
:1001E0007E30831203178D0004308F000310073018
:1001F00083160313C40083120B088316C5008312F1
:100200008B13831603178C170C14000000000318BF
:10021000372983120C087F3983160313C600831213
:1002200003170D0883160313C700831203170F0863
:1002300083160313C8004608CB008312852083165B
:100240004708831203178D0083160313480883128F
:1002500003178F0083168C170C1400000000031383
:10026000C40B332935290317372961290317831252
:100270000C0D0E0D7F3983160313C600831203176E
:100280000D0883160313C700831203170F08831684
:100290000313C8004608CB00831285208316470845
:1002A000831203178D008316031348088312031764
:1002B0008F008D0A03198F0A031083160313C40BD2
:1002C0000229C51F662983128B1783164208C400B2
:1002D0001B30C5008312AB202C308316CB00831259
:1002E000852020308316CB00831285208316430897
:1002F000C4001B30C5008312AB20FF30FE00FD00A0
:10030000FC00FB006420080087175330F700F70B50
:100310008729871308008712831686010C30831201
:100320008600842108008316941A9929A2011419C1
:10033000A2172208A20AC000C008031DBD29141C70
:10034000A829831214138C1DA329130814168316CD
:100350008312AF080319B9295F2002308316C20047
:1003600083122F088316C3008312EA208714AF017B
:100370006F2C0130AF006F2C831640087F3C031CAC
:10038000572C141CCC29831214138C1DC529130857
:100390001416B000CE29831683126F2C2F08013A51
:1003A0000319F129043A03193F2A033A0319452A8C
:1003B000043A03190B2B0B3A0319182B033A0319B0
:1003C000442B013A0319702B073A03199C2B0F3A5F
:1003D0000319C82B043A0319FA2B0F3A0319FF2B00
:1003E0004A2C3008013A0319112A073A0319132A33
:1003F000043A0319162A013A0319192A063A03196D
:100400001E2A0D3A0319212A0F3A0319242A0E3AFB
:100410000319252A033A0319282A0E3A0319312A07
:10042000342AAF013E2A6920AF013E2A0530AF00D1
:100430003E2A07150930AF0007113E2A0330AF00EE
:100440003E2A0230AF003E2A3E2A8B21AF013E2ACF
:100450008712831686010F30831286008421AF0134
:100460003E2A0730AF003E2A8316C20183123008AD
:100470008316C3008312EA20AF013E2A552C3008B0
:10048000D800D7010630AF00552C3008D707031825
:10049000D80A8316A4015930A300103084008312B7
:1004A00058088316C300831257088316C200CA0176
:1004B0000408C9004A10831B4A14430EF038C500D3
:1004C000C507E23EC600323EC80043080F39C607E2
:1004D000C607C807E93EC700C707C707420E0F395E
:1004E000C707C807C70DC80DC809C80D42080F398E
:1004F000C807C50D0730C4000A30C807C703031C6E
:100500007D2AC707C603031C812AC607C503031C2F
:10051000852AC507C403031C892AC43084008313B9
:100520000730490549138407C830040203194917E5
:100530000008F700031DA42A491BA42A491AB82A57
:10054000C919A42A2030A72AC91549123030F70743
:10055000C3010408C2004310831B43147708CB0077
:10056000831285208316420884008313431883175F
:10057000840A491F942ABF013F08043C031C072B2F
:1005800059303F078400831380080319072B353047
:1005900083122E07F800FA010318FA0A7808831666
:1005A000C2007A08C30059303F0784008313000853
:1005B000C400420884008313431883174408800052
:1005C000FA01F901F8010130F70083122E088316B1
:1005D000C2000319F22A0310F70DF80DF90DFA0DF8
:1005E000C20BEB2A7708FB047808FC047908FD04A9
:1005F0007A08FE0483122E081F3C031D012B0030D5
:10060000032B01302E07AE008316BF0ABC2A8312CB
:100610006420AF01552C3008D600D608031DD60340
:100620005608203C031CD6015608AE00AF01552CDD
:1006300035302E078400831330088000FA01F90159
:10064000F8010130F7002E088316C20003192F2B82
:100650000310F70DF80DF90DFA0DC20B282B7708D2
:10066000FB047808FC047908FD047A08FE04831270
:100670002E081F3C031D3E2B0030402B01302E075F
:10068000AE000A30AF00552C35302E07840083139E
:1006900030088000FA01F901F8010130F7002E0856
:1006A0008316C20003195B2B0310F70DF80DF90D2B
:1006B000FA0DC20B542B7708FB047808FC04790868
:1006C000FD047A08FE0483122E081F3C031D6A2BCA
:1006D00000306C2B01302E07AE000B30AF00552CD4
:1006E00035302E078400831330088000FA01F901A9
:1006F000F8010130F7002E088316C2000319872B7A
:100700000310F70DF80DF90DFA0DC20B802B7708C9
:10071000FB047808FC047908FD047A08FE048312BF
:100720002E081F3C031D962B0030982B01302E07FE
:10073000AE000C30AF00552C35302E0784008313EB
:1007400030088000FA01F901F8010130F7002E08A5
:100750008316C2000319B32B0310F70DF80DF90D22
:10076000FA0DC20BAC2B7708FB047808FC0479085F
:10077000FD047A08FE0483122E081F3C031DC22BC1
:100780000030C42B01302E07AE006420AF01552C81
:10079000B0080319F72B35302E0784008313300877
:1007A0008000FA01F901F8010130F7002E088316E4
:1007B000C2000319E22B0310F70DF80DF90DFA0D25
:1007C000C20BDB2B7708FB047808FC047908FD04D6
:1007D0007A08FE0483122E081F3C031DF12B003003
:1007E000F32B01302E07AE000330AF00F92B64204D
:1007F000AF01552C3008DF000830AF00552C300811
:10080000E0005F0E8316C100C10C0730C105031064
:10081000410D613E8400831383125F080339003069
:1008200060078000840A8001F10183164108730289
:10083000031C392CC2014208073C031C382C7208E7
:10084000F7004208F8000319292C0310F70CF80BE5
:10085000252C7718362C0310420D613E840083133B
:10086000840A033080008403FF308000C20A1B2CFE
:10087000F2014108F3000130F7004108F8000319C4
:10088000452C0310F70DF80B412C7708F204831266
:10089000AF01552C01308316C20083122F08831636
:1008A000C3008312EA20AF01552C6F2C8316400839
:1008B000803C031D702C83122E088316C200831205
:1008C0001308831642088312930014168C118316A2
:1008D0001418682CF8018312141AF80AAF01831651
:1008E00083128C118A110A1223283414D2308F00FB
:1008F000F0308E000C108A110A1223284539F23785
:100900007210A3127516A01275008712003083169C
:10091000381A0130F700F70EF70DF70DC030F70564
:100920007708803EB90038080F39B90786013908C1
:10093000831286008421831638088312B3000800CE
:10094000071164308316AF00AF30840083130008B2
:100950000319B72C0630F800F701F70BAD2CF80B94
:10096000AC2C7B30F700F70BB32C800BAA2C860144
:1009700083128601871307138712A7018B1BA71702
:100980008B138B21A71B8B1783168601383083129C
:10099000860084218316B80183128524642083167F
:1009A00003170908C039890003131F129F12003072
:1009B00003178800831203131F10083003178500E4
:1009C000831603130108C03907388100640005301D
:1009D00083129000D2308F00F0308E0083168C1579
:1009E000C03083128B045F208A150A127428071501
:1009F0008A150A1277288316B801B701360837021C
:100A000003181A2D8512831285125330F700F70B45
:100A1000072D07180D2D03100E2D03148316B80D86
:100A20008512831285165330F700F70B152D8316A8
:100A3000B70AFE2C3808F8008312080083162F0826
:100A4000B0000130B100C830B6000330B602031C5C
:100A5000332DB6308400831300080319332D312D54
:100A6000312D800B302DB1080319382D0130B10024
:100A7000851283128512871407118316300B432DBC
:100A80000430B5005A2D3008033C031D4A2D0630B2
:100A9000B5005A2D3008043C031D512D0130B5001E
:100AA0005A2D3008063C031D582D0330B5005A2D31
:100AB0003008B5000310B50D310B602D3514612DD4
:100AC00035100310B50D35143508B6000730B700E2
:100AD0000330F700F70B6A2DB80137083802031806
:100AE000902D851283128512831636080139031D55
:100AF0007D2D831287107F2D831683128714031098
:100B00008316B60C5330F700F70B842D8512831231
:100B100085165330F700F70B8B2D8316B80A6D2D11
:100B20000830B6008312FB248316B4017808B300A2
:100B30000430B6008312FB24780E8316B200F03026
:100B4000B205831207158316B60136083204F70082
:100B50003308FA007708F8003308F900790883129F
:100B6000080087168316B908031DB82D2030B90078
:100B7000860139088312860084218712B30A08008F
:100B8000F801F901F701FA0183163D08031DCB2D89
:100B90003C080319E52D1030BE000310BA0DBB0D43
:100BA000F70DFA0D3D087A02031DD82D3C08770297
:100BB000031CE12D3C08F702031CFA033D08FA026E
:100BC0000314F80DF90DBE0BCD2D8312080083160A
:100BD000B00CAF0CB00CAF0CB00CAF0CB00CAF0C39
:100BE0000F30B0058312341C552E34103208203CCF
:100BF000031DFE2D83160C10562E83127E08FA005C
:100C00007D08F9007C08F8007B08F700320883169D
:100C1000B8000319122E0310FA0CF90CF80CF70C9B
:100C2000B80B0B2E771C532EFA01F901F801013095
:100C3000F700831232088316B8000319262E03101A
:100C4000F70DF80DF90DFA0DB80B1F2EFF30F70652
:100C5000F806F906FA067708FB057808FC05790816
:100C6000FD057A08FE0583123308F8007808320281
:100C700003193F2E32088316B800831285243208E8
:100C8000103C031D482E10308316B80083128524B3
:100C9000353032078400831300088316B800B9008A
:100CA0008312B12583168312B20A8316B801831208
:100CB000852449308316B9008312B1252F3083165D
:100CC000B9008312B1254F308316B9008312B125C4
:100CD00020308316B9008312B1254D308316B90038
:100CE0008312B1256F308316B9008312B1256430A9
:100CF0008316B9008312B12575308316B9008312AB
:100D0000B1256C308316B9008312B1256530831686
:100D1000B9008312B1258316B9018312B125831658
:100D2000310B972EB80183128524BB2E8316310810
:100D3000023C031DA12E1030B80083128524BB2E67
:100D400083163108033C031DAF2E0F30B800831209
:100D500085248316B9018312B125BB2E8316310871
:100D6000043C031DBC2E1F30B8008312852483165B
:100D7000B9018312B12583164130B9008312B12520
:100D800044308316B9008312B12543308316B9006D
:100D90008312B125303083163207B800B9008312B0
:100DA000B1258316B9018312B1253D308316B900F0
:100DB0008312B1258316B9018312B1258316300839
:100DC000BB002F08BA002730BD001030BC008312D2
:100DD000C02579088316B9007808B8003030380784
:100DE000B3003008BB002F08BA002730BD00103018
:100DF000BC008312C02577088316B8007A08B900B2
:100E0000BB003808BA000330BD00E830BC008312D4
:100E1000C02579088316B9007808B8003030380743
:100E2000B4003008BB002F08BA002730BD001030D6
:100E3000BC008312C02577088316B8007A08B90071
:100E4000BB003808BA000330BD00E830BC00831294
:100E5000C02577088316B8007A08B900BB003808A7
:100E6000BA00BD016430BC008312C0257908831626
:100E7000B9007808B80030303807B5003008BB003A
:100E80002F08BA002730BD001030BC008312C025E7
:100E900077088316B8007A08B900BB003808BA0092
:100EA0000330BD00E830BC008312C02577088316EC
:100EB000B8007A08B900BB003808BA00BD01643038
:100EC000BC008312C02577088316B8007A08B900E1
:100ED000BB003808BA00BD010A30BC008312C0252F
:100EE00079088316B9007808B80030303807B600A2
:100EF0003008BB002F08BA002730BD001030BC00FE
:100F00008312C02577088316B8007A08B900BB00A1
:100F10003808BA000330BD00E830BC008312C02599
:100F200077088316B8007A08B900BB003808BA0001
:100F3000BD016430BC008312C02577088316B80059
:100F40007A08B900BB003808BA00BD010A30BC00FD
:100F50008312C02577088316B8007A08B9003030AC
:100F60003807B7003308B9008312B1258316340857
:100F7000B9008312B12583163508B9008312B12553
:100F800083163608B9008312B12583163708B900D5
:060F90008312B1250800E8
:10100000840183131F308305B43083169300363078
:1010100083129400831611148312AE01AF01B00144
:101020006330B100B201B3013410D601D801D70149
:10103000F101F201FF30FE00FD00FC00FB00033077
:101040008316A200A401A30103170908C03989006F
:1010500003131F129F1200300317880083128701A9
:10106000880189010313A801A9012030B500B60049
:10107000B700B800B900BA00BB00BC00BD00BE009C
:10108000BF00C000C100C200C300C400C500C6004C
:10109000C700C800C900CA00CB00CC00CD00CE00FC
:1010A000CF00D000D100D200D300D400D501D900A8
:1010B000DA00DB00DC00DD00DE018316A601A501FD
:1010C000A7010130A8000230A9000330AA000430B3
:1010D000AB000530AC000630AD000730AE00193073
:1010E00087008A118312A02C8A158A11F72C8A1581
:1010F00083162708AF008A1183121E258A157908E6
:101100008316A6007808A5002608B0002508AF00C1
:101110000230B1002708B2008A118312E7258A1530
:1011200083162808AF008A1183121E258A157908B4
:101130008316A6007808A5002608B0002508AF0091
:101140000330B1002808B2008A118312E7258A15FE
:1011500083162908AF008A1183121E258A15790883
:101160008316A6007808A5002608B0002508AF0061
:101170000430B1002908B2008A118312E7258A15CC
:041180007828630068
:04400E00C22FFF3F7F
:00000001FF
;PIC16F886
;CRC=E62F  CREATED="31-¾.¤.-12 00:40"
